:020000040800F2
:1000000000000220FD3E0008B5140008B9140008E5
:10001000BD140008C1140008C51400080000000049
:10002000000000000000000000000000C9140008EB
:10003000CD14000800000000D1140008D5140008F9
:100040004D3F00084D3F00084D3F00084D3F000860
:100050004D3F00084D3F00084D3F00084D3F000850
:100060004D3F00084D3F00084D3F00084D3F000840
:100070004D3F00084D3F00084D3F00084D3F000830
:100080004D3F00084D3F00084D3F00084D3F000820
:100090004D3F00084D3F00084D3F00084D3F000810
:1000A0004D3F00084D3F00084D3F00084D3F000800
:1000B0004D3F00084D3F00084D3F00084D3F0008F0
:1000C0004D3F00084D3F00084D3F00084D3F0008E0
:1000D0004D3F00084D3F00084D3F00084D3F0008D0
:1000E0004D3F00084D3F00084D3F00084D3F0008C0
:1000F0004D3F00084D3F00084D3F00084D3F0008B0
:100100004D3F00084D3F00084D3F00084D3F00089F
:100110004D3F00084D3F00084D3F00084D3F00088F
:100120004D3F00084D3F00084D3F00084D3F00087F
:100130004D3F00084D3F00084D3F00084D3F00086F
:100140004D3F00084D3F00084D3F00084D3F00085F
:100150004D3F00084D3F00084D3F00084D3F00084F
:100160004D3F00084D3F00084D3F00084D3F00083F
:100170004D3F00084D3F00084D3F00084D3F00082F
:080180004D3F00084D3F00084F
:1001880010B5054C237833B9044B13B10448AFF3C9
:1001980000800123237010BDB0090020000000007A
:1001A800440F030808B5064B1BB106480649AFF3D0
:1001B80000800648036813B1054B03B1984708BD92
:1001C80000000000440F0308B4090020AC09002017
:1001D80000000000154B002B08BF134B9D46A3F5EC
:1001E800803A00218B460F461348144A121A04F02D
:1001F800FDFF0F4B002B00D098470E4B002B00D073
:1002080098470020002104000D000D48002802D066
:100218000C4805F0DDF804F0C1FF2000290003F0C8
:10022800DBFD04F0ABFF00BF000008000000000089
:100238000000000000000000B00900207C0A002037
:10024800D9530008E553000800B5012083B00146E2
:1002580001F0EAFA012103220023009105488DF8F4
:10026800042069468DF8073001F06EF803B05DF898
:1002780004FB00BF0000024070B501218AB0154E92
:100288004FF4807001F000FB0024684601250094BB
:1002980001940294039400F00BFE00F0C5FD304673
:1002A80004A904948DF814400694079408948DF8D2
:1002B80015508DF8245000F0C5FD304621462A46D9
:1002C800062300F047FE3046294600F00BFE0AB030
:1002D80070BD00BF0020014008B5074800F086FE49
:1002E8000548022100F066FF0028F9D00248BDE861
:1002F800084000F0ABBE00BF0020014008490020C4
:10030800002301EB830201330A2B10604FF0000237
:10031800F7D10449044B002008601A60704700BFF9
:10032800480A0020440A0020400A0020194B1A4AB3
:100338001A4870B41C681A4D82FB0416E117C1EB09
:10034800A60101EB8101A4EB410105EB810191EDCF
:10035800007AD0ED006A30EE477AF2EE047A37EE92
:10036800267A80ED007A196882FB0142CC17C4EB2B
:10037800A20202EB8202A1EB420205EB820282EDAD
:10038800000A90ED000A1A68013280EE270A1A6006
:1003980070BC7047440A002067666666400A002001
:1003A800480A00202DE9F04F83B090469DF8304070
:1003B8009DF834509DF838709DF83C90844280F048
:1003C8008580002800F082808D427FD200297DD070
:1003D80022448242C8BFC4EB000003EB0502CCBF35
:1003E800C0B240468A42C8BFC5EB0101504ECCBFDF
:1003F800C9B21946052F307071706AD0062F7ED0A9
:1004080017F0010324D1BA0775D5DFF828A198465B
:100418005FFA88F0514608F1010800F061FCB8F174
:10042800050F0AF1080AF3D1B470F5703771307806
:10043800B0FBF9F002F0BAFC41EC100B09F080FCBB
:1004480051EC100B02F018FDC0B2B07130782EE0FC
:10045800DFF8E4B04FF0000A5FFA8AF059460AF173
:10046800010A00F03DFCBAF1070F0BF1080BF3D1BC
:10047800631C4345B8BF98465FFA88F8FF23B9075D
:1004880086F80080F371B470F5703771CFD4707846
:10049800B0FBF9F002F08AFC41EC100B09F050FCBB
:1004A80051EC100B02F0E8FCC0B2B0717078B3796F
:1004B800B0FBF3F002F07AFC41EC100B09F040FCC1
:1004C80051EC100B02F0D8FCC0B2707103B0BDE85B
:1004D800F08FDFF868A04FF000085FFA88F0514607
:1004E80008F1010800F0FCFBB8F1070F0AF1080A4F
:1004F800F3D10123F371B470F5703771C7E7DFF8F2
:1005080040A04FF000085FFA88F0514608F1010852
:10051800019300F0E5FBB8F1050F0AF1080A019B09
:10052800F1D16A1C9A42B8BF1346DBB273707BE7FD
:10053800CC0900209C00002064000020040000205A
:100548003C000020704700BF054A137AD3F101032D
:1005580038BF002313720BB900F09EBB00F090BBAC
:10056800CC0900202DE9F04F2DED028B87B0A24C6D
:10057800237900AF03F00203B860B0EE408A03F0BD
:10058800FF02002B40F0D880657821786379C7F89E
:1005980004D0EDB201FB05F107316E46C908A6EBA0
:1005A800C1008546EB46002B00F099803A619446DD
:1005B8004FF0200A22782378BE683869A17906EEC0
:1005C800103A06EB8003D3ED007A8C4EB8EEC66A7B
:1005D800B1EE0C7A27EE866A06EE902A26EE077AA6
:1005E800F8EEE66A87EE087A67EEA67ABCEEC77A76
:1005F800C7EE887A17EE100AC0B2A0FB0623C21A0B
:1006080003EB52039B08FCEEE77AC3EBC303C01A63
:1006180017EE906AC0B2F860F6B2002957D0764A51
:10062800386992F80680537808FB00F85FFA88F872
:1006380098454CD2FA68003218BF01227A614FF00F
:100648000009002E76D0227802F0FF038AB100223A
:1006580013460BEB080102E02078834209D20133EC
:1006680002FB05F0DBB2B34201F800C002F101025F
:10067800F2D17A693AB12278934204D003FB05B1EA
:10068800F86801F808007A6913442278DBB29342CB
:1006980038BF0BEB080108D203FB05F0227801F8FC
:1006A80000A00133DBB29342F6D309F10109A37923
:1006B8005FFA89F999450AD24F4B386993F8068051
:1006C8005B7808FB00985FFA88F89845B9D33869D1
:1006D8006379421CD2B29A423A61FFF46BAF237835
:1006E8004FF00009F3B1A378E079E17800FB093015
:1006F800C0B200F0EFF963786BB1002609FB05F88A
:100708000BEB0603013613F8080000F0FDFA6378D6
:10071800F6B29E42F4D309F1010923785FFA89F908
:100728009945E0D37B689D461C37BD46BDEC028BDE
:10073800BDE8F08F33469CE72379227A33EA020238
:1007480001D0FFF701FF6379002BEDD0DFF8A88017
:100758004FF0000A60786278BE68A17906EE102A28
:1007680006EB8A03D3ED007AB8EEC66AB1EE047AD6
:1007780027EE866A06EE900A26EE077AF8EEE66A13
:1007880087EE087A1E4867EEA67ABCEEC77AC7EEEF
:10079800887A17EE103ADBB2A0FB03029208FCEE4F
:1007A800E77A02EB82029B1A17EE905ADBB27B6162
:1007B800EDB200295AD098F8063098F8002003FBCB
:1007C8000AF3DBB2934251D27A6912F1000918BFD9
:1007D8004FF001090026A278E1789818C0B200F01D
:1007E80079F9002D50D098F8012002F0FF03002A73
:1007F8004CD04FF0000B08E0CC090020254992248A
:10080800CDCCCCCC6278934508D2002000F07CFA9D
:100818000BF101035FFA83FBAB45F3D1B9F1000F8C
:1008280005D06278934502D0786900F06DFA0BEB39
:10083800090362785FFA83FB934509D2202000F010
:1008480063FA0BF1010362785FFA83FB9345F5D3F2
:100858000136A379F6B29E4208D298F8063098F885
:10086800002003FB0A63DBB29342B4D30AF1010A06
:1008780063795FFA8AFA9A45FFF46CAF1C37BD4674
:10088800BDEC028BBDE8F08FAB46C7E79B46C5E7DA
:10089800704700BF2DE9F041074629B301F1FF3841
:1008A800124D5FFA88F808F10108A5F1080600243E
:1008B80047FA04F202F001020134306835F8021FE9
:1008C80000F0D4FD4445F3D13189306800F0D6FDFD
:1008D800012002F0F7F83068318900F0CFFD64207C
:1008E800BDE8F04102F0EEB8014EEDE7E009002066
:1008F800D809002038B5124B124C1A788A4205469E
:100908000BD019700A462068A18800F0AFFDE18875
:10091800FF2902D0206800F0A7FD237FDB0609D459
:1009280028090421FFF7B6FF28460421BDE838400E
:10093800FFF7B0BF28460821BDE83840FFF7AABF37
:10094800C4000020D80900202DE9F04F414C424D49
:10095800A28085B0E380BDF838B0BDF83CA0BDF8F2
:100968004090BDF84480BDF848C0BDF84C70BDF853
:100978005060BDF85420BDF858302160A94201905C
:10098800A4F808B0A4F80AA0A4F80C90A4F80E8063
:10099800A4F810C06782A682E282238358D02F4B26
:1009A80099424FD003F5806399424DD003F5806397
:1009B80099424BD003F58063994202D005B0BDE857
:1009C800F08F1020012100F02FFFA6896389E589A7
:1009D800208A217F1F4A33432B430343C9069BB216
:1009E80021D41A462689A188E3882068194D314305
:1009F80089B2FF2B08BF00230A431A4300240123AE
:100A080002A98DF80C308DF80D3002928DF80E4049
:100A18008DF80F4000F098FC019B7BB910232B77D1
:100A280005B0BDE8F08F968A558AD08A118B46EAC0
:100A3800050202430A431A4392B2D3E72C7705B062
:100A4800BDE8F08F0220BDE70420BBE70820B9E726
:100A58000120B7E7D8090020000002400004024046
:100A68002DE9F0418AB0002494468846BDF840E05C
:100A7800BDF84470BDF84860BDF84C50009301467D
:100A880042466346CDF804E0029703960495059420
:100A98000694079408940120FFF756FF0AB0BDE8B2
:100AA800F08100BF08B501200021FFF723FF4FF4B4
:100AB800FA60BDE8084002F005B800BF08B502209A
:100AC8000021FFF717FF4FF4FA60BDE8084001F076
:100AD800F9BF00BF82B0084A034602A80344106861
:100AE800019013F8043C194461F07F00C0B2002162
:100AF80002B0FFF7FFBE00BF10A00008044B5A7FEA
:100B080002F0FB0242F0080000215A77FFF7F2BE1C
:100B1800D8090020044B587F002140F0040240F01F
:100B28000C005A77FFF7E6BED809002038B5374CD5
:100B3800012882BF237F43F0080323770AB10128E5
:100B48005ED04CF2503001F0BDFF2068A1882F4DD7
:100B580000F08AFC2189206800F086FCE188FF29E2
:100B680002D0286800F080FC207F284DC3062BD5D2
:100B7800002140F02000FFF7BDFE41F2941001F083
:100B8800A1FF287F002140F02000FFF7B3FE962048
:100B980001F098FF287F002140F02000FFF7AAFE0F
:100BA800207F002140F02000FFF7A4FE0423637794
:100BB800FFF7B0FFFFF776FF0223A3770620002197
:100BC800BDE83840FFF796BE04210320FFF762FE18
:100BD80041F2941001F076FF04210320FFF75AFE3A
:100BE80041F2941001F06EFF04210320FFF752FE3A
:100BF800962001F067FF02200421FFF74BFECFE7A4
:100C0800237F43F0040323779BE700BFD809002024
:100C1800044B5A7F02F0FD0242F0080000215A7787
:100C2800FFF768BED8090020044B587F002140F028
:100C3800020240F00A005A77FFF75CBED80900208C
:100C4800044B5A7F02F0FE0242F0080000215A7756
:100C5800FFF750BED8090020044B587F002140F010
:100C6800010240F009005A77FFF744BED809002076
:100C780018200021FFF73EBE1C200021FFF73ABED6
:100C8800044B987F002140F0020240F006009A775A
:100C9800FFF730BED8090020044B9A7F02F0FD020E
:100CA80042F0040000219A77FFF724BED8090020FB
:100CB800044B987F002140F0010240F005009A772C
:100CC800FFF718BED8090020044B9A7F02F0FE02F5
:100CD80042F0040000219A77FFF70CBED8090020E3
:100CE80000F00700C00038B540F040000D46002174
:100CF800FFF700FE00240121285D0C44FFF7FAFDF0
:100D0800082CF8D138BD00BF0121FFF7F3BD00BFA3
:100D18000FB430B58BB00EAA02A852F8041B01928A
:100D280004F0C8FA85B28DB19DF808000A280DD0E4
:100D380002AC013D14FA85F503E014F8010F0A2806
:100D480004D00121FFF7D6FDAC42F6D10BB0BDE8C7
:100D5800304004B0704700BF40F0BF60024B40F421
:100D68000030D860704700BF00ED00E0C378F0B4F1
:100D780063B90378194A5909203103F01F03012088
:100D880000FA03F342F82130F0BC7047144B47785F
:100D9800DA68857803781149D243C2F30222C2F196
:100DA80004040F26E4B207FA04F446FA02F2E4B2A5
:100DB8002A40224303F1604303F561431201D2B292
:100DC80083F800230378012003F01F025B0900FA6F
:100DD80002F241F82320F0BC704700BF00E100E0B8
:100DE80000ED00E021F0604121F07F01014B084354
:100DF8009860704700ED00E0044B1A6919B922EABF
:100E080000001861704710431861704700ED00E05A
:100E1800044B1A6804280CBF42F0040222F00402B2
:100E28001A60704710E000E008B54FF480700121A7
:100E380000F066FD4FF480700021BDE8084000F026
:100E48005FBD00BF4268D1F80CC0134B2DE9F0011B
:100E580022F040720C6891F804800F698E684D7911
:100E680022F48072224342EA0822426084684CEAF3
:100E7800070232432340134343EA450383600B7D53
:100E8800C26A013BDBB222F4700242EA0353C36236
:100E9800BDE8F001704700BFFDF7FFC00023012245
:100EA80002750360037143718360C3600361704717
:100EB80070B490E84200064A8568C468054B5068DB
:100EC80031432943214303400B43536070BC7047AF
:100ED80000230140E030FCFF00230360436083608F
:100EE800C3607047836819B923F0010383607047B2
:100EF80043F0010383607047436823F4400323F4FD
:100F0800007319434160704741628262704700BFB5
:100F1800436823F01F03194341607047054B5A6823
:100F280018B922F400025A60704742F400025A606D
:100F3800704700BF00230140054B5A6818B922F4D6
:100F480080025A60704742F480025A60704700BFBE
:100F580000230140092970B41ED9A1F10A0404EB49
:100F68004404C5680726A64003FA04F425EA0603E4
:100F78002343062AC3601CD90C2A28D90D3AC46A0F
:100F880002EB82021F23934024EA030301FA02F2D0
:100F98001A43C26270BC704701EB41040569072619
:100FA800A64003FA04F425EA06032343062A03614C
:100FB800E2D8013A446B02EB82021F23934024EAF1
:100FC800030301FA02F21A43426370BC7047073AFE
:100FD800046B02EB82021F23934024EA030301FA05
:100FE80002F21A43026370BC704700BF836843F083
:100FF80080438360704700BF8068C0F3807070478B
:10100800836819B923F480638360704743F480636D
:1010180083607047836819B923F0020383607047BF
:1010280043F00203836070474368013923F4604347
:1010380043EA413141607047436819B923F40063BA
:101048004360704743F4006343607047C06C80B2EC
:10105800704700BF014B1868704700BF0823014064
:10106800836819B923F480738360704743F48073ED
:1010780083607047836819B923F4007383607047ED
:1010880043F4007383607047054B5A6818B922F41B
:1010980000525A60704742F400525A60704700BFCD
:1010A80000230140092970B41BD801EB41040569EC
:1010B8000726A64003FA04F425EA0603234303613E
:1010C800836B0232C3F30154121BD2B202EB8202C9
:1010D8001F24944023EA040391400B43836370BCAC
:1010E8007047A1F10A0404EB4404C5680726A6402A
:1010F80003FA04F425EA06032343C360E0E700BFCC
:10110800836B013923F4401343EA0151816370472B
:1011180082B0002301930190019B19440191019B26
:101128001A6002B0704700BF836823F47023194324
:1011380081607047836823F44013194381607047C6
:10114800836843F480038360704700BF8068C0F3FE
:1011580080507047436819B923F48063436070472F
:1011680043F4806343607047436819B923F480539C
:101178004360704743F480534360704782B0002354
:1011880001930190019B283319440191019B186830
:1011980080B202B0704700BF0123C9B203FA01F15F
:1011A80043681AB923EA0101416070471943416055
:1011B800704700BF036819420CBF00200120704728
:1011C800C9430160704700BF4368006810EA1120F6
:1011D80007D0C9B2012202FA01F119420CBF00205E
:1011E800012070476FEA11210160704708B54B4B29
:1011F80098422AD04A4B984231D04A4B984238D02C
:10120800494B98423FD0494B984246D0484B984268
:101218004DD0484B984254D0474B98425BD0474BEF
:10122800984262D0464B98426BD0464B984200D0C9
:1012380008BD4FF48060012100F032FB4FF480605C
:101248000021BDE8084000F02BBB0120014600F05A
:1012580027FB01200021BDE8084000F021BB022047
:10126800012100F01DFB02200021BDE8084000F02C
:1012780017BB0420012100F013FB04200021BDE866
:10128800084000F00DBB0820012100F009FB0820F0
:101298000021BDE8084000F003BB1020012100F048
:1012A800FFFA10200021BDE8084000F0F9BA20201C
:1012B800012100F0F5FA20200021BDE8084000F0E7
:1012C800EFBA4020012100F0EBFA40200021BDE8F0
:1012D800084000F0E5BA8020012100F0E1FA802002
:1012E8000021BDE8084000F0DBBA4FF4807001210E
:1012F80000F0D6FA4FF480700021BDE8084000F0F5
:10130800CFBA4FF40070012100F0CAFA4FF4007010
:101318000021BDE8084000F0C3BA00BF0000024049
:101328000004024000080240000C02400010024085
:101338000014024000180240001C02400020024035
:10134800002402400028024000222DE9F00713463D
:101358000E6801274FF0030804E00133102B02F157
:1013680002022CD007FA03F404EA0605A542F4D1D8
:10137800D0F8009091F804C008FA02F4E44304EAB3
:101388000909C0F80090D0F800900CFA02FA0CF1A4
:10139800FF3C4AEA0909BCF1010FC0F8009011D9D5
:1013A800C56891F807C02C40C460C5680CFA02F4FF
:1013B80001332C43102BC46002F10202D2D1BDE8E4
:1013C800F0077047D0F808A091F8059091F806C08A
:1013D80004EA0A0AC0F808A0D0F808A009FA02F935
:1013E80049EA0A09C0F80890D0F8049029EA0505E6
:1013F800456045680CFA03FC1FFA8CFC4CEA0505AD
:101408004560CDE700234FF6FF7202600371437118
:101418008371C371704700BF82B04FF4803301936A
:10142800019B0B430193019BC361C161019BC36194
:10143800C3690193C369019302B0704703691942F4
:101448000CBF002001207047006980B2704700BFC0
:10145800436919420CBF002001207047406980B2DF
:10146800704700BF01837047418370470AB94183C1
:1014780070470183704700BF416170474369594015
:1014880041617047CB0800EB830001F0070110B4FD
:101498008900046A0F238B4024EA03030362036A6A
:1014A8005DF8044B8A40134303627047704700BFDE
:1014B800FEE700BFFEE700BFFEE700BFFEE700BF94
:1014C800704700BF704700BF704700BF01F00CBBFA
:1014D8000F4B10481968002241F0010130B419601F
:1014E8009A6019680C4D0D4C21F0A85121F4102177
:1014F80019605D60C3F88440C3F88800196821F456
:101508008021196030BCDA60C3F88C20704700BFB6
:101518000038024000300024103000240030002041
:10152800024B00221A701870704700BF0238024040
:1015380082B000230B4A019313689B030CD4019BD0
:1015480001330193019BB3F5A04FF5D1054B186802
:10155800C0F3404002B07047019B01330193019BE7
:10156800F4E700BF00380240034B1A6822F0F80283
:1015780042EAC0001860704700380240014B18600A
:10158800704700BF00004742064B002201281A702E
:101598001A7005D0042802D105221A7070477047C6
:1015A8001870704770380240014B1860704700BFD0
:1015B800800E474230B4029C064D40EA04605B0846
:1015C8000143013B41EA821242EA03436B6030BCAB
:1015D800704700BF00380240014B1860704700BFD9
:1015E800600047420907034B41EA8010C3F88400B2
:1015F800704700BF00380240014B1860704700BFB9
:1016080068004742120742EA0161034B41EA801031
:10161800C3F88800704700BF00380240014B1860CB
:10162800704700BF70004742014B1860704700BF09
:101638004C004742034B9A6822F0EC62114308437E
:101648009860704700380240034B9A6822F078424D
:10165800114308439860704700380240034B9A686A
:1016680022F0030210439860704700BF0038024020
:10167800024B986800F00C00704700BF0038024029
:10168800034B9A6822F0F00210439860704700BF3D
:1016980000380240034B9A6822F4E05210439860E5
:1016A800704700BF00380240034B9A6822F460423A
:1016B80042EAC00098607047003802401F4A9368A9
:1016C80003F00C03042B10B41BD0082B1CD01C4BAC
:1016D80003601A491B4A8C68C4F30314145DE34081
:1016E80043608C68C4F38224145D23FA04F4846094
:1016F80089685DF8044BC1F34231525CD340C36042
:101708007047114B0360E4E75468516852686302FC
:101718004CBF0D4B0A4B01F03F01C2F38812B3FBDB
:10172800F1F303FB02F3054A5268C2F301420132A6
:101738005200B3FBF2F30360CBE700BF003802406E
:101748000024F400C800002000127A0000F440735E
:10175800B3F5407F09D1084A916820F0704321F41D
:10176800F81123F440730B439360034B1A6FC0F3D3
:101778000B0010431867704700380240014B18608F
:10178800704700BF3C0E4742014B1860704700BFCE
:10179800400E4742014B1860704700BF5C0147424A
:1017A800044BD3F88C20013822F01F020243C3F8FF
:1017B8008C20704700380240054BD3F88C20013844
:1017C80022F4F85242EA0022C3F88C20704700BF86
:1017D80000380240044BD3F88C2022F44012104306
:1017E800C3F88C00704700BF00380240044BD3F8A0
:1017F8008C2022F440021043C3F88C00704700BFCD
:1018080000380240044BD3F88C2022F440321043B5
:10181800C3F88C00704700BF00380240014B1860C5
:10182800704700BFE0114742044B1A6B19B922EA0E
:10183800000018637047104318637047003802406F
:10184800044B5A6B19B922EA0000586370471043D9
:101858005863704700380240044B9A6B19B922EA62
:10186800000098637047104398637047003802403F
:10187800044B1A6C19B922EA000018647047104327
:101888001864704700380240044B5A6C19B922EAB0
:10189800000058647047104358647047003802408D
:1018A800044B1A6919B922EA0000186170471043FD
:1018B8001861704700380240044B5A6919B922EA86
:1018C8000000586170471043586170470038024063
:1018D800044B9A6919B922EA0000986170471043CD
:1018E8009861704700380240044B1A6A19B922EA15
:1018F80000001862704710431862704700380240B1
:10190800044B5A6A19B922EA00005862704710431A
:101918005862704700380240044B1A6D19B922EA20
:10192800000018657047104318657047003802407A
:10193800044B5A6D19B922EA0000586570471043E4
:101948005865704700380240044B9A6D19B922EA6D
:10195800000098657047104398657047003802404A
:10196800044B1A6E19B922EA000018667047104332
:101978001866704700380240044B5A6E19B922EABB
:101988000000586670471043586670470038024098
:10199800044B1A6F01280CBF42F0080222F008021B
:1019A8001A67704700380240044B1A7819B922EABE
:1019B8000000187070471043187070470D380240C7
:1019C8004309012B0BD0022B094B0CBF1B6F5B6F1C
:1019D80000F01F0023FA00F000F001007047044BEC
:1019E8001B6800F01F0023FA00F000F001007047A8
:1019F80000380240024B5A6F42F080725A677047B3
:101A080000380240034BDB6818420CBF002001205D
:101A1800704700BF00380240014B1870704700BF84
:101A28000E38024008B5604B984235D0B0F1804F6F
:101A38003CD05E4B984243D05D4B98424AD05D4BB8
:101A4800984251D05C4B984258D05C4B98425FD03A
:101A58005B4B984266D05B4B98426DD05A4B98428C
:101A680076D05A4B98427FD0594B984200F08880E4
:101A7800584B984200F08E80574B984200D008BDD2
:101A88004FF480700121FFF72FFF4FF48070002181
:101A9800BDE80840FFF728BF01200146FFF730FFE7
:101AA80001200021BDE80840FFF72ABF01200146B8
:101AB800FFF71AFF01200021BDE80840FFF714BF17
:101AC80002200121FFF710FF02200021BDE8084095
:101AD800FFF70ABF04200121FFF706FF04200021B9
:101AE800BDE80840FFF700BF08200121FFF7FCFE12
:101AF80008200021BDE80840FFF7F6BE10200121AC
:101B0800FFF7F2FE10200021BDE80840FFF7ECBE09
:101B180020200121FFF7E8FE20200021BDE8084031
:101B2800FFF7E2BE02200121FFF7EAFE02200021B2
:101B3800BDE80840FFF7E4BE4FF480300121FFF70D
:101B4800DFFE4FF480300021BDE80840FFF7D8BE23
:101B58004FF400300121FFF7D3FE4FF4003000218D
:101B6800BDE80840FFF7CCBE4FF480200121FFF705
:101B7800C7FE4FF480200021BDE80840FFF7C0BE33
:101B880040200121FFF7B0FE40200021BDE80840B9
:101B9800FFF7AABE80200121FFF7A6FE80200021C2
:101BA800BDE80840FFF7A0BE000001400004004067
:101BB80000080040000C00400010004000140040E5
:101BC8000004014000400140004401400048014039
:101BD80000180040001C004000200040234A0388F1
:101BE800904270B49BB212D002F5806290420ED03F
:101BF800B0F1804F0BD0A2F58032904207D002F5A9
:101C08008062904203D002F58062904203D14A88F4
:101C180023F070031343164A90421ED002F58062E7
:101C280090421AD00E894D680C8823F4407302F54F
:101C38006C429BB2334390420380C562048506D050
:101C48000C4B984203D00123838270BC70478B7A77
:101C580003860123838270BC704703800B884A681F
:101C6800C26203850123838270BC70470000014073
:101C7800001000400004014000234FF0FF32426092
:101C88000380038143808372704700BF018582828D
:101C9800704700BF038823F070031B041B0C194313
:101CA8000180704741627047C1627047406A70475F
:101CB800008D80B2704700BF038829B923F0020362
:101CC8001B041B0C038070479BB243F00203038084
:101CD800704700BF038829B923F004031B041B0CB9
:101CE800038070479BB243F004030380704700BF32
:101CF800038829B923F080031B041B0C0380704759
:101D08009BB243F080030380704700BF038823F031
:101D180008031B041B0C038003889BB21943018032
:101D2800704700BF038823F440731B041B0C038017
:101D380003889BB219430180704700BF038829B903
:101D480023F001031B041B0C038070479BB243F074
:101D580001030380704700BFF0B4048CB1F802C0DF
:101D68008F890E881B4D24F001042404240C04845C
:101D7800028C8488038B22F0020223F0730312047E
:101D88004CEA07071B04120CBFB21B0CA84247EA17
:101D98000202A4B243EA06030AD005F58065A84208
:101DA80006D0896884800383F0BC4163028470474D
:101DB800B1F80EC04F8A0D8A8E8822F0080242EAD6
:101DC8000C023D4324F4407422F00402ADB23243C5
:101DD8002C43E6E700000140F0B4048CB1F80CC0D5
:101DE8004F880E881F4D24F010042404240C04840A
:101DF800028C8488038B22F02002120423F4E64329
:101E0800120C1B0442EA0C121B0C42EA071243EAAA
:101E18000623A84292B2A4B29BB20AD005F5806507
:101E2800A84206D0896884800383F0BC8163028459
:101E38007047CD89B1F810C08F884E8A22F0800291
:101E480092B242EA051224F440644FF6BF75154079
:101E580044EA8C0445EA071244EA860492B2A4B222
:101E6800E0E700BF00000140F0B4048CB1F80CC0FA
:101E78004F880E881E4D24F480742404240C048496
:101E8800028C8488838B22F400721204120C23F0D3
:101E9800730342EA0C221B0442EA07221B0CA842E5
:101EA80092B2A4B243EA06030AD005F58065A842B7
:101EB80006D0896884808383F0BCC163028470473C
:101EC800CD89B1F810C08F884E8A22F4006292B290
:101ED80042EA052224F440544FF6FF35154044EAFF
:101EE8000C1445EA072244EA061492B2A4B2E0E7C9
:101EF80000000140F0B4048CB1F80CC04F880E8883
:101F0800164D24F480542404240C0484028C848800
:101F1800838B22F40052120423F4E643120C1B04B0
:101F280042EA0C321B0C42EA073243EA0623A84273
:101F380092B2A4B29BB20AD005F58065A84206D039
:101F4800896884808383F0BC0164028470470D8AA9
:101F580024F4804444EA8514A4B2F1E70000014067
:101F6800002303804380838083608381C38103824D
:101F780043827047038C10B401249BB28C4023EA3F
:101F8800040421F00803048418307BB10439C1F338
:101F98004E0148F6FF730C5823400B5012020B58A1
:101FA8005DF8044B92B21A430A50704749084FF63D
:101FB8008F7344582340435043585DF8044B1A43E9
:101FC800425070474163704781637047C1637047EF
:101FD80001647047038B23F070031B041B0C194327
:101FE80001837047038B23F4E0431B041B0C43EA73
:101FF80001218BB203837047838B23F070031B048A
:102008001B0C194381837047838B23F4E0431B0423
:102018001B0C43EA01218BB283837047038B23F0A7
:1020280008031B041B0C194301837047038B23F41B
:1020380000631B041B0C43EA01218BB20383704726
:10204800838B23F008031B041B0C194381837047FF
:10205800838B23F400631B041B0C43EA01218BB21E
:1020680083837047038B23F004031B041B0C194361
:1020780001837047038B23F480631B041B0C43EA22
:1020880001218BB203837047838B23F004031B0465
:102098001B0C194381837047838B23F480631B04D3
:1020A8001B0C43EA01218BB283837047038B23F017
:1020B80080031B041B0C194301837047038BC3F374
:1020C8000E0343EA01218BB203837047838B23F00D
:1020D80080031B041B0C194381837047838BC3F354
:1020E8000E0343EA01218BB283837047038C23F0EC
:1020F80002031B041B0C194301847047038C23F053
:1021080008031B041B0C194301847047038C23F03C
:1021180020031B041B0C43EA01118BB20384704794
:10212800038C23F080031B041B0C43EA01118BB2C0
:1021380003847047038C23F400731B041B0C43EACD
:1021480001218BB203847047038C23F400631B04C2
:102158001B0C43EA01218BB203847047038C23F4E0
:1021680000531B041B0C43EA01318BB203847047F4
:10217800038C10B401248C409BB223EA040303842B
:10218800038C5DF8044B8A4013439BB20384704769
:10219800038C10B404248C409BB223EA0403038408
:1021A800038C5DF8044B8A4013439BB20384704749
:1021B8000B88F0B4002B32D0042B58D0082B038C9A
:1021C80000F083804E888F880D89CC8823F4805155
:1021D8000904090C0184828B038C22F4407223F4D5
:1021E800005312055B04120D5B0C42EA072243EA16
:1021F800063342EA05329BB243F4805392B282839B
:102208000384838B23F440631B041B0C8383838B1D
:102218009BB243EA04239BB28383F0BC7047028CD1
:102228008D880E894C88C98822F001021204120C8C
:102238000284028B038C92B222F0F30223F00A0389
:1022480042EA06121B0444F0010492B21B0C234319
:102258002A4302830384038B23F00C031B041B0C07
:102268000383038B9BB20B430383F0BC7047028C40
:102278004E888C880F89C98822F010021204120C2B
:102288000284038B058C23F440731B051B0DADB230
:1022980043EA073225F0A00545EA061392B242EA5E
:1022A80004229BB243F0100392B202830384038B8F
:1022B80023F440631B041B0C0383038B9BB243EA88
:1022C80001239BB20383F0BC704723F480731B0483
:1022D8001B0C4D888C880E89CA880384818B038CDB
:1022E80089B29BB221F0F30123F4206341EA06117D
:1022F80043EA052389B29BB243F480732143818367
:102308000384838B23F00C031B041B0C8383838BB4
:102318009BB21343838380E70023012282800380DA
:102328004380C38003817047F0B44D888C880B8844
:10233800B1F808C0028CC988002D14BF00260226F7
:10234800012C14BF01270227002B4BD022F01002CA
:102358001204120C0284038B028C23F440731B05B5
:102368001B0D92B243EA0C3322F0A0029BB242EA60
:10237800051543EA0424ADB2A4B245F01005048360
:102388000584038B23F440631B041B0C0383038B1A
:102398009BB243EA01239BB20383038C23F001031E
:1023A8001B041B0C0384028B038C92B222F0F302F1
:1023B8009BB242EA0C1C23F00A0343F001031FFA04
:1023C8008CFC1E434CEA070707830684038B23F023
:1023D8000C031B041B0C0383038B9BB2194301835F
:1023E800F0BC704722F001021204120C0284038B25
:1023F800028C9BB223F0F30322F00A0243EA0C1387
:10240800120445F001059BB2120C1C432A430483B5
:102418000284028B22F00C021204120C0283038B3A
:102428009BB20B430383028C22F010021204120C9D
:102438000284038B028C23F440731B051B0D92B29C
:1024480043EA0C3322F0A0029BB242F0100243EAA6
:10245800072742EA061607830684038B23F44063A2
:102468001B041B0C0383038B9BB243EA012189B233
:102478000183F0BC704700BF406B7047806B7047AA
:10248800C06B7047006C7047038B23F00C031B0470
:102498001B0C0383038B9BB219430183704700BF56
:1024A800038B23F440631B041B0C0383038B9BB235
:1024B80043EA01218BB20383704700BF838B23F06B
:1024C8000C031B041B0C8383838B9BB219438183EE
:1024D800704700BF838B23F440631B041B0C83836A
:1024E800838B9BB243EA01218BB28383704700BF81
:1024F800B1F802C00B888A89F0B48F88CE880D891C
:102508004C894CEA03033B4333432B432343134394
:102518009BB2A0F84430F0BC704700BF0023038092
:1025280043808380C380038143818381704700BFD8
:10253800B0F8443021B9C3F30E03A0F84430704713
:102548006FEA43436FEA53439BB2A0F844307047A5
:10255800838829B923F004031B041B0C838070476C
:102568009BB243F004038380704700BF838829B976
:1025780023F001031B041B0C838070479BB243F0BC
:1025880001038380704700BF83899BB21AB923EA8D
:1025980001018181704719438181704781827047A9
:1025A800038A19420CBF002001207047C94389B231
:1025B80001827047038A828911EA030092B203D02C
:1025C80011420CBF00200120704700BFC94389B2E7
:1025D800018270470A43A0F84820704783899BB25C
:1025E8001AB923EA01018181704719438181704733
:1025F800838829B923F008031B041B0C83807047C8
:102608009BB243F008038380704700BF038923F01F
:1026180007031B041B0C0381704700BF038923F0C9
:1026280070031B041B0C1943018103899BB243F0FF
:1026380007030381704700BF602930B4048C24D09D
:1026480024F001042404240C0484058B048CADB20A
:1026580025F0F305A4B245F0010524F00A0445EA83
:10266800031344F001049BB22243038302840389C9
:1026780023F070031B041B0C0B43038103899BB2DB
:1026880043F00703038130BC704724F0100424048E
:10269800240C0484048B058C24F440742405ADB206
:1026A800240D25F0A00544F4807445F0100544EA93
:1026B800033345EA02129BB292B203830284D6E73F
:1026C80010B4048942EA0323E4B223439BB21943BA
:1026D800018103895DF8044B23F077031B041B0C6D
:1026E80043F077030381704710B4048942EA032357
:1026F800E4B223439BB21943018103895DF8044B7B
:102708009BB243F480430381704700BF038923F0E1
:1027180070031B041B0C194301817047838823F045
:1027280070031B041B0C838083889BB21943818030
:10273800704700BF038923F007031B041B0C0381A8
:1027480003899BB219430181704700BF038923F0B5
:1027580080031B041B0C038103899BB2194301816D
:10276800704700BF10B40489E4B221430A4342EA27
:1027780003239CB204815DF8044B704770B405894B
:10278800048B068C24F4407424F00304B6B226F0BB
:10279800220625F00705240432432D04240C2D0CB1
:1027A80044F4807442EA0313294344F001049EB2BE
:1027B80001810483068470BC704700BF838829B9EF
:1027C80023F080031B041B0C838070479BB243F0EB
:1027D80080038380704700BFA0F85010704700BF87
:1027E800704700BF0120704708B502F0C1FC1623EE
:1027F80003604FF0FF3008BD08B502F0B9FC16239E
:102808000360FEE770B5161E0C4606DD8D19AFF3A2
:10281800008004F8010BAC42F9D1304670BD00BF0E
:1028280070B5161E0C4606DD8D1914F8010BAFF3B2
:102838000080AC42F9D1304670BD00BF08B50A4BE4
:102848001A6801466AB11046421869468A4201D898
:102858001A6008BD02F08CFC0C2303604FF0FF30B7
:1028680008BD02481860EFE7F80900207C0A00203C
:102878004FF0FF30704700BF4FF400534B6000200B
:10288800704700BF01207047002070470EB44FF01A
:10289800FF3003B0704700BF08B502F069FC0A2397
:1028A80003604FF0FF3008BD08B502F061FC022359
:1028B80003604FF0FF3008BD4FF0FF30704700BF96
:1028C8004FF400534B600020704700BF08B502F07A
:1028D8004FFC1F2303604FF0FF3008BD08B502F01E
:1028E80047FC0B2303604FF0FF3008BD08B502F02A
:1028F8003FFC0C2303604FF0FF3008BD394A3A4BC8
:10290800D2F88810394841F47001C2F88810196863
:10291800002241F0010119609A60196821F0847160
:1029280021F4803119605860196882B021F480213F
:102938001960DA60009201921A6842F480321A60D3
:102948001A4603E0009BB3F5A04F09D0136803F4BF
:1029580000330193009B01330093019B002BF1D0BE
:10296800214B1B6813F4003318BF01230193019B0B
:10297800012B05D01B4B4FF000629A6002B07047E4
:10298800194B1B4A186C1B4940F08050186410689A
:1029980040F4404010609A689A609A6842F4004295
:1029A8009A609A6842F4A0529A6059601A6842F094
:1029B80080721A6019460B680B4A9B01FBD50E4BB7
:1029C80040F205711960936823F0030393609368DC
:1029D80043F002039360936803F00C03082BFAD1C9
:1029E800C8E700BF00ED00E00038024010300024C6
:1029F8000070004019544007003C0240154B9A688B
:102A080002F00C02042A23D0082A09D0124A1149DC
:102A1800124B8968C1F30311595CCA401A617047A7
:102A2800586859685B6842024CBF0D4A0A4A01F06F
:102A38003F01C3F38813B2FBF1F202FB03F2054B2B
:102A48005B68C3F3014301335B00B2FBF3F2DEE7DB
:102A5800034ADCE7003802400024F400DC000020D0
:102A680000127A0010B5FFF7C9FF0A4A0A4B12682C
:102A7800A3FB02139B0C013BB3F1807F09D2074AE9
:102A880007485360F0240021072380F82340916011
:102A9800136010BDEC00002083DE1B4310E000E053
:102AA80000ED00E006490A6840B10B689B1AB3F5CF
:102AB8007A7FFAD3013802F57A72F5E7704700BFDA
:102AC800700A0020024A10601368002BFCD170477E
:102AD800740A0020740F030800000020AC090020CD
:102AE800B00900207C0A00200548016801F10101B5
:102AF80001600448016800291CBF01390160704762
:102B0800700A0020740A002081F0004102E000BF32
:102B180083F0004330B54FEA41044FEA430594EA95
:102B2800050F08BF90EA020F1FBF54EA000C55EAD0
:102B3800020C7FEA645C7FEA655C00F0E2804FEAA1
:102B48005454D4EB5555B8BF6D420CDD2C4480EA83
:102B5800020281EA030382EA000083EA010180EAB3
:102B6800020281EA0303362D88BF30BD11F0004F01
:102B78004FEA01314FF4801C4CEA113102D0404237
:102B880061EB410113F0004F4FEA03334CEA133372
:102B980002D0524263EB430394EA050F00F0A7808A
:102BA800A4F10104D5F1200E0DDB02FA0EFC22FA85
:102BB80005F2801841F1000103FA0EF2801843FA79
:102BC80005F359410EE0A5F120050EF1200E012A6A
:102BD80003FA0EFC28BF4CF0020C43FA05F3C018A8
:102BE80051EBE37101F0004507D54FF0000EDCF121
:102BF800000C7EEB00006EEB0101B1F5801F1BD3CA
:102C0800B1F5001F0CD349085FEA30004FEA3C0CCD
:102C180004F101044FEA445212F5800F80F09A80C3
:102C2800BCF1004F08BF5FEA500C50F1000041EBC7
:102C3800045141EA050130BD5FEA4C0C404141EBCB
:102C4800010111F4801FA4F10104E9D191F0000FF2
:102C580004BF01460020B1FA81F308BF2033A3F175
:102C68000B03B3F120020CDA0C3208DD02F1140C6C
:102C7800C2F10C0201FA0CF021FA02F10CE002F1A7
:102C88001402D8BFC2F1200C01FA02F120FA0CFCA0
:102C9800DCBF41EA0C019040E41AA2BF01EB0451E9
:102CA800294330BD6FEA04041F3C1CDA0C340EDCE7
:102CB80004F11404C4F1200220FA04F001FA02F32A
:102CC80040EA030021FA04F345EA030130BDC4F1E8
:102CD8000C04C4F1200220FA02F001FA04F340EADD
:102CE8000300294630BD21FA04F0294630BD94F08E
:102CF800000F83F4801306BF81F480110134013D75
:102D08004EE77FEA645C18BF7FEA655C29D094EAE5
:102D1800050F08BF90EA020F05D054EA000C04BF63
:102D28001946104630BD91EA030F1EBF002100204E
:102D380030BD5FEA545C05D14000494128BF41F0ED
:102D4800004130BD14F580043CBF01F5801130BD51
:102D580001F0004545F0FE4141F470014FF00000DC
:102D680030BD7FEA645C1ABF194610467FEA655C8D
:102D78001CBF0B46024650EA013406BF52EA03352F
:102D880091EA030F41F4002130BD00BF90F0000F1D
:102D980004BF0021704730B54FF4806404F1320459
:102DA8004FF000054FF0000150E700BF90F0000F12
:102DB80004BF0021704730B54FF4806404F1320439
:102DC80010F0004548BF40424FF000013EE700BF09
:102DD80042004FEAE2014FEA31014FEA02701FBF99
:102DE80012F07F4393F07F4F81F06051704792F06B
:102DF800000F14BF93F07F4F704730B54FF46074E5
:102E080001F0004521F0004120E700BF50EA01022F
:102E180008BF704730B54FF000050AE050EA0102DC
:102E280008BF704730B511F0004502D5404261EB4C
:102E380041014FF4806404F132045FEA915C3FF48D
:102E4800DCAE4FF003025FEADC0C18BF03325FEA26
:102E5800DC0C18BF033202EBDC02C2F1200300FADB
:102E680003FC20FA02F001FA03FE40EA0E0021FA00
:102E780002F11444C1E600BF4A0011D212F5001253
:102E880011D20DD56FF47873B3EB62520ED44FEABA
:102E9800C12343F0004343EA505323FA02F070473A
:102EA8004FF00000704750EA013002D14FF0FF3078
:102EB80070474FF000007047844641EA000313F062
:102EC80003036DD1403A41D351F8043B40F8043B29
:102ED80051F8043B40F8043B51F8043B40F8043BEC
:102EE80051F8043B40F8043B51F8043B40F8043BDC
:102EF80051F8043B40F8043B51F8043B40F8043BCC
:102F080051F8043B40F8043B51F8043B40F8043BBB
:102F180051F8043B40F8043B51F8043B40F8043BAB
:102F280051F8043B40F8043B51F8043B40F8043B9B
:102F380051F8043B40F8043B51F8043B40F8043B8B
:102F480051F8043B40F8043B403ABDD2303211D32B
:102F580051F8043B40F8043B51F8043B40F8043B6B
:102F680051F8043B40F8043B51F8043B40F8043B5B
:102F7800103AEDD20C3205D351F8043B40F8043B2B
:102F8800043AF9D2043208D0D2071CBF11F8013B29
:102F980000F8013B01D30B8803806046704700BFEF
:102FA800082A13D38B078DD010F003038AD0C3F1FE
:102FB8000403D21ADB071CBF11F8013B00F8013BE0
:102FC80080D331F8023B20F8023B7BE7043AD9D39F
:102FD800013A11F8013B00F8013BF9D20B78037074
:102FE8004B7843708B7883706046704740EA010CD9
:102FF8001CF0070F23D1BDF1100DCDE90245CDE935
:1030080000676FF000064FF0000700BFF0E80223EA
:10301800F1E80245A24282FA46FCA7FA86FC08BFFC
:10302800BCF1000F40F0D780AB4283FA46FCA7FA08
:1030380086FC08BFBCF1000F40F0CA80E6E710F03C
:10304800030C21D020F0030050F8042B5FEACC7C5D
:1030580008D00FD211F801CB5FFA92F3B3EB0C0C46
:1030680010D17BB111F801CB5FFAA2F3B3EB0C0CD2
:1030780008D13BB111F801CB5FFAB2F3B3EB0C0CFA
:1030880000D10BB960467047BDF1100DCDE902457E
:10309800CDE900676FF000064FF0000711F0030C50
:1030A8002DD110F0040F0DD050F8042B51F8044B1B
:1030B800A24282FA46FCA7FA86FC08BFBCF1000FC0
:1030C80040F0898011F0040F9FD051F8045B00BFD5
:1030D800F0E80223AA4282FA46FCA7FA86FC08BF57
:1030E800BCF1000F71D1F1E80245A34283FA46FC16
:1030F800A7FA86FC08BFBCF1000F63D1E8E721F00E
:103108000301BCF1020F1ED03BDA51F8045B00BF8B
:1031180050F8043B4FEA152583FA46FCA7FA86FCCB
:10312800B7EB0C2F03EA162208BFAA424DD151F87B
:10313800045BBCF1000F82EA03034FEA056208BF93
:1031480093423CD1E4E751F8045B00BF50F8043BDC
:103158004FEA154583FA46FCA7FA86FCB7EB0C4FF5
:1031680003EA164208BFAA422FD151F8045BBCF10A
:10317800000F82EA03034FEA054208BF93421ED1BB
:10318800E4E751F8045B00BF50F8043B4FEA1565CB
:1031980083FA46FCA7FA86FCB7EB0C6F03EA1662C3
:1031A80008BFAA4211D151F8045BBCF1000F82EAB2
:1031B80003034FEA052208BF934200D1E4E719BA96
:1031C80012BA0AE019BA22BA07E011BA2ABA04E018
:1031D80019BA2ABA01E011BA22BA9CFA8CF0DDE9D0
:1031E8000067DDE902451DF1100D38B1B0FA80F035
:1031F800C0F1180021FA00F122FA00F201209142F0
:1032080098BF8041704700BF70B54FF0FF0C4CF479
:10321800E06C1CEA11541DBF1CEA135594EA0C0F0C
:1032280095EA0C0F00F0DEF82C4481EA030621EA47
:103238004C5123EA4C5350EA013518BF52EA033582
:1032480041F4801143F4801338D0A0FB02CE4FF034
:103258000005E1FB02E506F00042E0FB03E54FF064
:103268000006E1FB03569CF0000F18BF4EF0010E5C
:10327800A4F1FF04B6F5007F64F5407404D25FEA58
:103288004E0E6D4146EB060642EAC62141EA55510B
:103298004FEAC52040EA5E504FEACE2EB4F1FD0C4D
:1032A80088BFBCF5E06F1ED8BEF1004F08BF5FEACB
:1032B800500E50F1000041EB045170BD06F000467D
:1032C80046EA010140EA020081EA0301B4EB5C042A
:1032D800C2BFD4EB0C0541EA045170BD41F4801122
:1032E8004FF0000E013C00F3AB8014F1360FDEBF47
:1032F800002001F0004170BDC4F10004203C35DA23
:103308000C341BDC04F11404C4F1200500FA05F3A5
:1033180020FA04F001FA05F240EA020001F0004246
:1033280021F0004110EBD37021FA04F642EB0601BC
:103338005EEA430E08BF20EAD37070BDC4F10C04E6
:10334800C4F1200500FA04F320FA05F001FA04F2AA
:1033580040EA020001F0004110EBD37041F1000196
:103368005EEA430E08BF20EAD37070BDC4F12005A1
:1033780000FA05F24EEA020E20FA04F301FA05F209
:1033880043EA020321FA04F001F0004121FA04F2B1
:1033980020EA020000EBD3705EEA430E08BF20EA81
:1033A800D37070BD94F0000F0FD101F000464000BB
:1033B80041EB010111F4801F08BF013CF7D041EA3D
:1033C800060195F0000F18BF704703F00046520041
:1033D80043EB030313F4801F08BF013DF7D043EA12
:1033E8000603704794EA0C0F0CEA135518BF95EAC8
:1033F8000C0F0CD050EA410618BF52EA4306D1D14F
:1034080081EA030101F000414FF0000070BD50EA6D
:10341800410606BF1046194652EA430619D094EAF7
:103428000C0F02D150EA013613D195EA0C0F05D1E1
:1034380052EA03361CBF104619460AD181EA030135
:1034480001F0004141F0FE4141F470014FF00000ED
:1034580070BD41F0FE4141F4780170BD70B54FF088
:10346800FF0C4CF4E06C1CEA11541DBF1CEA135508
:1034780094EA0C0F95EA0C0F00F0A7F8A4EB0504EA
:1034880081EA030E52EA03354FEA013100F08880E1
:103498004FEA03334FF0805545EA131343EA1263AA
:1034A8004FEA022245EA111545EA10654FEA00265F
:1034B8000EF000419D4208BF964244F1FD0404F518
:1034C800407402D25B084FEA3202B61A65EB030574
:1034D8005B084FEA32024FF480104FF4002CB6EB31
:1034E800020E75EB030E22BFB61A754640EA0C00B1
:1034F8005B084FEA3202B6EB020E75EB030E22BFF1
:10350800B61A754640EA5C005B084FEA3202B6EB31
:10351800020E75EB030E22BFB61A754640EA9C00F0
:103528005B084FEA3202B6EB020E75EB030E22BFC0
:10353800B61A754640EADC0055EA060E18D04FEA7E
:10354800051545EA16754FEA06164FEAC30343EA1E
:1035580052734FEAC2025FEA1C1CC0D111F4801FEB
:103568000BD141EA00014FF000004FF0004CB6E7E4
:1035780011F4801F04BF01430020B4F1FD0C88BF83
:10358800BCF5E06F3FF6AFAEB5EB030C04BFB6EB8E
:10359800020C5FEA500C50F1000041EB045170BD81
:1035A8000EF0004E4EEA113114EB5C04C2BFD4EBAE
:1035B8000C0541EA045170BD41F480114FF0000E32
:1035C800013C90E645EA060E8DE60CEA135594EAAE
:1035D8000C0F08BF95EA0C0F3FF43BAF94EA0C0FB1
:1035E8000AD150EA01347FF434AF95EA0C0F7FF426
:1035F80025AF104619462CE795EA0C0F06D152EA7A
:1036080003353FF4FDAE1046194622E750EA41065D
:1036180018BF52EA43067FF4C5AE50EA41047FF46E
:103628000DAF52EA43057FF4EBAE12E74FF0FF3CD3
:1036380006E000BF4FF0010C02E000BF4FF0010CA4
:103648004DF804CD4FEA410C7FEA6C5C4FEA430C1D
:1036580018BF7FEA6C5C1BD001B050EA410C0CBF6C
:1036680052EA430C91EA030F02BF90EA020F0020CE
:10367800704710F1000F91EA030F58BF994208BF35
:1036880090422CBFD8176FEAE37040F001007047F2
:103698004FEA410C7FEA6C5C02D150EA013C07D149
:1036A8004FEA430C7FEA6C5CD6D152EA033CD3D094
:1036B8005DF8040B704700BF8446104662468C468E
:1036C8001946634600E000BF01B5FFF7B7FF0028C1
:1036D80048BF10F1000F01BD4DF808EDFFF7F4FFEA
:1036E8000CBF012000205DF808FB00BF4DF808ED75
:1036F800FFF7EAFF34BF012000205DF808FB00BF98
:103708004DF808EDFFF7E0FF94BF012000205DF8B9
:1037180008FB00BF4DF808EDFFF7CEFF94BF01206E
:1037280000205DF808FB00BF4DF808EDFFF7C4FF67
:1037380034BF012000205DF808FB00BF4FEA4102BA
:1037480012F5001215D211D56FF47873B3EB6252EB
:1037580012D94FEAC12343F0004343EA505311F012
:10376800004F23FA02F018BF404270474FF00000A4
:10377800704750EA013005D111F0004008BF6FF0E2
:10378800004070474FF00000704700BF4BB942B986
:10379800002908BF002802D04FF0FF31084600F08A
:1037A8003BB882B0EC462DE9005000F01DF8DDF87A
:1037B80004E002B00CBC70472DE97043069E144625
:1037C8001D468046894600F029F804FB01F300FBFA
:1037D8000533A4FB00451D44B8EB040469EB05055B
:1037E800C6E90045BDE870832DE97043069E14467E
:1037F800804689461D4600F05DF900FB05F504FB8F
:103808000153A0FB04451D44B8EB040469EB05050E
:10381800C6E90045BDE87083704700BF00292DE95F
:10382800F00FC0F29F800024002BC0F2968015464E
:1038380006460F46002B3ED18A4257D9B2FA82F388
:103848004BB1C3F1200201FA03F720FA02F29D40BE
:10385800174300FA03F6290CB7FBF1F2330C01FB0E
:10386800127CA8B243EA0C4700FB02F3BB4209D919
:103878007F1902F1FF3C80F00181BB4240F2FE80DB
:10388800023A2F44FF1AB7FBF1F3B6B201FB1371EA
:1038980046EA014100FB03F0884208D9491903F1BF
:1038A800FF3780F0ED80884240F2EA80023B43EA2D
:1038B8000242002303E08B420AD900231A4610462D
:1038C800194614B1404261EB4101BDE8F00F704761
:1038D800B3FA83F8B8F1000F40F084808B4202D32A
:1038E800824200F2DE8000230122E8E712B90123B8
:1038F800B3FBF2F5B5FA85F2002A39D17F1B280C03
:103908001FFA85FC0123B7FBF0F1320C00FB11779D
:1039180042EA07470CFB01F2BA4207D97F1901F1C5
:10392800FF3802D2BA4200F2C1804146BF1AB7FB43
:10393800F0F2B6B200FB127046EA00400CFB02FC43
:10394800844507D9401902F1FF3702D2844500F2B5
:10395800AB803A4642EA0142B1E7E443524263EBA4
:10396800430364E7404261EB41014FF0FF345BE7FA
:103978009540C2F1200327FA03F1280C26FA03F335
:103988009740B1FBF0F81F433B0C00FB18111FFADE
:1039980085FC43EA01410CFB08F38B4206FA02F668
:1039A80008D9491908F1FF3279D28B4277D9A8F1A1
:1039B80002082944C91AB1FBF0F3BFB200FB131186
:1039C80047EA01470CFB03F2BA4207D97F1903F112
:1039D800FF3160D2BA425ED9023B2F44BF1A43EA94
:1039E800084390E7C8F1200203FA08FC25FA02F31D
:1039F80043EA0C0C4FEA1C4921FA02F301FA08F7D2
:103A080020FA02F2B3FBF9F1174309FB11333A0C20
:103A18001FFA8CFB42EA03430BFB01FA9A4505FAAD
:103A280008F008D913EB0C0301F1FF3235D29A459F
:103A380033D902396344CAEB0303B3FBF9F209FB38
:103A48001233BFB247EA03470BFB02F9B94508D95D
:103A580017EB0C0702F1FF331BD2B94519D9023A0B
:103A6800674442EA0145A5FB0001C9EB07078F42FD
:103A78004FF000030AD305D02A4620E7624601E743
:103A88003B4614E706FA08F68642F5D26A1E00237A
:103A980015E71A46E5E70B46A0E71146CBE790463F
:103AA80088E7434642460AE7023A53E702392F4479
:103AB8003CE700BF2DE9F00F144605460E46002BE3
:103AC80043D18A4253D9B2FA82F757B1C7F12006D7
:103AD80020FA06F601FA07F302FA07F41E4300FA81
:103AE80007F5210CB6FBF1F22B0C01FB1267A0B213
:103AF80043EA074600FB02F3B34209D9361902F13B
:103B0800FF3780F0F680B34240F2F380023A264451
:103B1800F61AB6FBF1F3ADB201FB136145EA0141B8
:103B280000FB03F0884208D9091903F1FF3680F039
:103B3800E280884240F2DF80023B43EA02420023EF
:103B480010461946BDE8F00F70478B424AD8B3FAC1
:103B580083F6002E4DD18B4202D3824200F2D680EA
:103B68000023012210461946BDE8F00F704712B92C
:103B78000124B4FBF2F4B4FA84F2002A7CD1091BC4
:103B8800260CA7B20123B1FBF6F02A0C06FB101194
:103B980042EA014107FB00F28A4207D9091900F1FC
:103BA800FF3C02D28A4200F2C3806046891AB1FB08
:103BB800F6F2ADB206FB121145EA014507FB02F722
:103BC800AF4208D92C1902F1FF3180F09680A74244
:103BD80040F29380023A42EA004210461946BDE894
:103BE800F00F704700231A4610461946BDE8F00F3B
:103BF8007047C6F1200522FA05F4B3401C434FEA8A
:103C0800144821FA05F301FA06F720FA05F5B3FB83
:103C1800F8FC2F4308FB1C333D0C1FFA84FA45EAD5
:103C280003430AFB0CF9994502FA06FB04D91B1950
:103C38000CF1FF326DD39446C9EB0303B3FBF8F5DF
:103C480008FB1533BFB247EA03470AFB05F8B84536
:103C580004D93F1905F1FF3361D31D4645EA0C4CE1
:103C6800ACFB0B23C8EB07079F424FF0000549D375
:103C780045D062462B4663E79440C2F1200321FAFF
:103C880003FC260C20FA03F301FA02F5BCFBF6F854
:103C980043EA05010B0C06FB18CCA7B243EA0C4C0F
:103CA80007FB08F3634500FA02F509D91CEB040C7D
:103CB80008F1FF323AD2634538D9A8F10208A44482
:103CC800C3EB0C0CBCFBF6F389B206FB13CC41EA40
:103CD8000C4107FB03F28A4207D9091903F1FF30A7
:103CE80022D28A4220D9023B2144891A43EA084356
:103CF80049E73A460CE733461FE70A466BE7B04008
:103D08009042B6D20CF1FF32002319E7334632460F
:103D180016E799458FD9ACF1020C23448CE7B845D6
:103D28009BD9023D274499E70346DEE79046C7E75B
:103D3800023821443AE700BF4FEA4102B2F1E043BA
:103D480024BFB3F5001CDCF1FE5C0DD901F0004C7A
:103D58004FEAC0024CEA5070B2F1004F40EB8300CA
:103D680008BF20F00100704711F0804F21D113F1F6
:103D78003872BCBF01F00040704741F480114FEA2F
:103D88005252C2F11802C2F1200C10FA0CF320FAB8
:103D980002F018BF40F001004FEAC1234FEAD323D5
:103DA80003FA0CFC40EA0C0023FA02F34FEA43033F
:103DB800CCE77FEA625307D150EA01331EBF4FF0C8
:103DC800FE4040F44000704701F0004040F0FE40E3
:103DD80040F40000704700BFF0B52DED028BADF642
:103DE800744DFEF73FFEFCF72FFAFCF745FA4FF447
:103DF80080604FF400614FF480524FF400538DE817
:103E08000F0000F180404FF4007300F5033080216B
:103E18004FF48072FCF724FE022010210022FCF7E8
:103E280085FE0024FCF73EFE1023012202200092AA
:103E380002921946039301940246FCF7B3FADFEDA8
:103E48002B8A9FED2B8A00250DF674461CAF0A209D
:103E5800FEF728FE0DF274441620FEF733FEFCF739
:103E68003BFA07EE100AF8EE477A77EEE87A67EE43
:103E7800887A44ED017A44F8085BB442ECD1012316
:103E880000224FF4807107A800F09CF907A80DF5EF
:103E98008E6100F039FE0DF58E6039464FF4807260
:103EA80001F03AF806AB38464FF4807105AA00F0E5
:103EB8004BF80CAB43F8045BBB42FBD11DAC0123B0
:103EC800DA100CA901EB820292ED007AF4EC017A87
:103ED800013377EE277A802BC2ED007AF0D10846BD
:103EE800B7EE080AFCF73EFBB1E700BF000000454B
:103EF8000000003A002100F004B80D4B5B58435015
:103F080004310C480C4B42189A42FFF4F6AF0B4AA6
:103F180000F003B8002342F8043B094B9A42FFF42F
:103F2800F9AFFEF7EBFC01F039F9FFF755FF7047E1
:103F3800740F030800000020AC090020B00900201D
:103F48007C0A0020FFF7FEBF2DE9F00701F1FF38DA
:103F580084465FEA9809FCEC017A00F03081DCEDD8
:103F6800006AF4EEE76AF1EE10FA9CED017AC8BF38
:103F7800F0EE667AF4EEC77AD4BF002601269CEDEF
:103F8800020AF1EE10FA48BFF0EE477AF4EEC07A72
:103F980048BF0226DCED030AF1EE10FA48BFF0EE46
:103FA800407A09F1FF34F4EEE07A48BF0326274649
:103FB800F1EE10FA04F0010A48BFF0EE607A48BF4B
:103FC800042600F114050824002F00F09F80BAF1A0
:103FD800000F30D095ED001AB4EEE71AF1EE10FAA2
:103FE800D5ED011AC8BFF0EE417AF4EEE17A95ED0D
:103FF800022AC8BF0526F1EE10FA48BFF0EE617A32
:10400800F4EEC27AD5ED032A48BF0626F1EE10FA7F
:1040180048BFF0EE427AF4EEE27A48BF0726F1EEA6
:1040280010FA48BFF0EE627A48BF08260C24013F18
:1040380000F124056AD095ED003AB4EEE73AF1EEC6
:1040480010FAD5ED013AC8BFF0EE437AA4F10300A7
:10405800F4EEE37AC8BF064695ED024AF1EE10FA8F
:1040680048BFF0EE637AA4F10200F4EEC47AD5ED0D
:10407800034A48BF0646F1EE10FA48BFF0EE447A0C
:1040880004F1FF30F4EEE47A95ED045A48BF064691
:10409800F1EE10FA48BFF0EE647AB4EEE75A48BF82
:1040A8002646D5ED055AF1EE10FAC8BFF0EE457A6E
:1040B80004F10100F4EEE57AC8BF064695ED066AFC
:1040C800F1EE10FA48BFF0EE657A04F10200F4EE62
:1040D800C67A48BF0646D5ED076AF1EE10FA48BF22
:1040E800F0EE467A04F10300F4EEE67A04F10404F3
:1040F80048BF0646F1EE10FA48BFF0EE667A48BFB0
:1041080026460434023F05F1200594D10CEB091C26
:1041180018F0030550D06046B0EC017AB4EEE77AA7
:10412800F1EE10FAC5EB0101C8BFF0EE477ACCBF3B
:104138000F463746012405F1FF3CAC420CEA040C5B
:10414800B0EE670A3E46F0EE670A2FD0BCF1000FCA
:104158000FD0B0EC010AB4EEE70AF1EE10FAD8BFBE
:10416800B0EE670AF0EE400A1CDC0134AC423E4671
:104178001CD0B0EC011AB4EEE01AF1EE10FAF0EC33
:10418800011AC8BFF0EE410AF4EEE01AC8BF0E19D2
:10419800F1EE10FAC8BFF0EE610A04F10104B0EEC6
:1041A800600A00DD0E190134AC42E2D182ED000A4A
:1041B8001E60BDE8F0077047B0EE670AF6E74E46A6
:1041C800A6E700BF8270264A0180B1F5807F426071
:1041D800C37039D008D9B1F5806F1FD0B1F5805FB1
:1041E80011D0FF2040B27047102922D04029F8D1C1
:1041F8001C494FF040134FF07252C3608160026156
:10420800002040B2704718494FF001134FF0665232
:10421800C36081600261002040B2704713494FF0CB
:1042280004134FF06A52C36081600261002040B2FB
:1042380070470F494FF001234FF07652C3608160F9
:104248000261002040B270470A494FF010134FF046
:104258006E52C36081600261002040B2704700BFA7
:10426800EC050208EA0503086C0503087205030853
:104278006A0703088A0503082DE9F00F2DED068B60
:104288008EB08A460C904FEA91010C9C0293043040
:104298000B9001EB4103CF0004EB011604EBC303C1
:1042A8000191043202990B9C09920C9ADDF804B032
:1042B8003D1D01EB410C311D3E1903965019099E15
:1042C800029DCDF810B01A1D0B9BDDF80CB00397BA
:1042D8004FEA05184FEAC5094FEACC0C3546344673
:1042E800D3ED006A91ED007AD2ED007A90ED006A84
:1042F80053ED012A12ED014A10ED013A51ED013A50
:1043080036EE275A36EE871A73EE044A72EEA30A7F
:1043180031EE052A30EEA40A12EE107A54ED011A95
:10432800D4ED005A72EEE33A03ED010A36EE676AFD
:1043380043F8087B70EEE40A31EE451A33EE443A4E
:1043480036EEC74A33EE860AD5ED006A21EE255AC5
:1043580060EEA55A33EEC62A74EE432A73EE043A89
:1043680051EE215A15ED013AD6ED007A20EE266A73
:1043780056ED014A00EEA15A12EE836A22EEA64AD1
:1043880062EE276A15EE907A00EE034A53EEA46AAD
:1043980023EEA77A00ED015A02EE247A40F8087B52
:1043A80016EE107A01ED014A41F8087B16EE907A74
:1043B8005B4502ED017A44444D44664442F8087B6B
:1043C8008ED102A890E88108019982008CB293B23C
:1043D800042C0D94079340F2B0800A944FEA9B0690
:1043E80007980896741E0C99079D069400EB4002E6
:1043F800089C0798DDF82480DDF82C9001EBC603B3
:10440800D200EE00010125010433039602950591BF
:1044180004920193C446464600250299019A56ED36
:1044280001AA96ED00AA5CED019A9CED009A58ED60
:10443800018A98ED008A09EB01004B4651182C4679
:1044480053ED011A93ED000A52ED010A92ED001A9C
:1044580050ED013AD0ED004A11ED015AD1ED005A64
:1044680070EE647A31EEE32A70EEC52A31EE656AA1
:1044780031EEA33A30EE244A70EE853A71EE254AC1
:1044880077EEE21A32EE061A33EE630A32EE462A65
:1044980072EEA72A74EE640A60EE095A20EE895A71
:1044A80021EE8A6A61EE0A6A22EE887A62EE087A5A
:1044B80000EE295A50EEA95A01EE2A6A51EEAA6A6C
:1044C80002EE287A52EEA87A33EE233A5C4474EE70
:1044D800243AA24503ED013AC3ED003A02ED015A30
:1044E800C2ED005A3B4400ED016AC0ED006A3A444F
:1044F80001ED017AC1ED007A38443944A0D8019819
:104508000699039C059B049A013508308D42264480
:104518009C44904409F1080901907FF67EAF079FFB
:104528000A9BDDF820B0BC009A08A0B2042A0A92BF
:10453800079002D94FEACB0750E70C990B9F0C461E
:1045480094ED001AD7ED004AD7ED011A97ED020A4B
:10455800D7ED030A97ED042AD7ED052AD7ED066AA9
:1045680031EE204A31EE606A34EE825A74EEC27A35
:1045780031EEE27A30EE661A31EEA23A70EE265A41
:104588000D9C0B9F631E74EE031A35EE250A74EE1C
:10459800434A75EE650A36EE012A77EEC73A76EE9B
:1045A800412A77EE276A2031184603F001023B467C
:1045B80041ED081A203387ED000AC7ED014AC7ED1F
:1045C800020A87ED032AC7ED043AC7ED052AC7EDAD
:1045D800066A2031002800F0CE80002A44D011ED70
:1045E800085AD3ED005A93ED013A93ED021A93ED70
:1045F800036AD3ED047A93ED057AD3ED061A35EE06
:10460800064A35EE460A73EE074A71EE213A75EE10
:10461800A70A35EEE75A33EE476A71EE616A34EE5F
:10462800242A70EEA32A34EE641A70EEE35A30EEB0
:10463800263A35EE467A70EE661A76EE057A01ED80
:10464800082AC3ED002A83ED011AC3ED025A83ED4F
:10465800033A83ED047AC3ED051AC3ED067A2031D7
:104668002033013800F0878011ED080AD3ED000AE5
:1046780093ED012AD3ED023A93ED035AD3ED044AA0
:10468800D3ED052AD3ED066A30EE456A70EEE41ADA
:1046980073EEA65A32EE627A73EEE67A30EE054A87
:1046A80030EEA41A32EE223A71EE250A34EE030AED
:1046B80034EE432A31EE655A76EE274A71EEC73A50
:1046C80076EE672A77EE216A01ED080AC3ED000A43
:1046D80083ED012A83ED025AC3ED034AC3ED043A80
:1046E800C3ED052AC3ED066A0C4694ED001AD3ED16
:1046F800081A93ED093A93ED0A0A93ED0B6AD3ED84
:104708000C5A93ED0D7AD3ED0E0A31EE064A31EECE
:10471800A55A73EE074A70EE203A70EE606A31EEE1
:10472800461A71EEE57A73EE471A34EE242A75EECE
:10473800232A34EE640A35EE636A31EE263A77EEC0
:10474800E15A31EE667A71EEA70A203101ED082AA6
:104758002031C3ED082A83ED090A83ED0A6A83ED47
:104768000B3AC3ED0C5A83ED0D7AC3ED0E0A4033B4
:1047780002387FF479AF0EB0BDEC068BBDE8F00FC0
:10478800704700BF2DE9F00F2DED088B8EB08A46DB
:104798000B900B9C02934FEA9101043004EB011536
:1047A8000C900432CF00019101EB41030992029968
:1047B8000B9ADDF804B0281D0C9DCDF810B03E1DF5
:1047C80001EB410C91197E1904EBC3030396029C7B
:1047D800099EDDF80CB003971A1D0C9B4FEA0418CC
:1047E8004FEAC4094FEACC0C3546344693ED004AEB
:1047F800D0ED006A91ED006AD2ED007A53ED012AFE
:1048080012ED017A50ED013A11ED013A36EE275AD0
:1048180034EE261A73EE074A72EEA30A31EE052A21
:1048280030EEA48A12EE107A54ED011AD4ED005A33
:1048380033EE473A03ED018A34EE667A43F8087B93
:1048480036EE674A72EEE33A70EEE40A31EE451A44
:10485800D5ED006A33EEC42A77EE032A21EE255AF5
:1048680060EEA55A73EE843A41EE215A37EE434A78
:1048780015ED013AD6ED007A22EEA66A62EE266AB6
:1048880056ED014A10EEA15A42EE836A24EE277AC9
:1048980063EEA77A15EE907A12EE036A44EE247A54
:1048A80001ED015A13EEA47A41F8087B16EE907ACE
:1048B80000ED016A40F8087B17EE907A5B4502ED3F
:1048C800017A44444D44664442F8087B8ED102A8DC
:1048D80090E881080199820088B293B204280D906B
:1048E800079340F2B0800A904FEA9B050895079E0F
:1048F8000B990898DDF82480DDF8309001EBC503AA
:10490800441EF50006EB46020898079E06943101FE
:10491800D200043304010395059104920193029493
:10492800C446464600250299019A16ED01BAD6ED0D
:1049380000AA1CED01AADCED009A18ED019AD8ED49
:10494800008A09EB01004B4651182C4613ED018AE9
:10495800D3ED001A52ED010A92ED001A50ED013A1A
:1049680051ED014A91ED005A90ED004A70EEE45A7B
:1049780038EE632A31EE456A71EEC42A38EE233ADE
:1049880031EE844A70EEA43A71EE054A72EEA51A29
:1049980032EE461A33EE638A32EE062A72EEE52AC2
:1049A80074EE640A68EE295A20EEA95A21EEAA6A22
:1049B80061EE2A6A22EEA87A62EE287A18EE0A5A7E
:1049C80040EE8A5A11EE0B6A41EE8B6A12EE097AB2
:1049D80042EE897A33EE233A5C4474EE243AA245D7
:1049E80003ED013AC3ED003A02ED015AC2ED005A57
:1049F8003B4400ED016AC0ED006A3A4401ED017ADA
:104A0800C1ED007A38443944A0D801980699039C2E
:104A1800059B049A013508308D4226449C449044F5
:104A280009F1080901907FF67EAF079C0A9FDDF81F
:104A380020B0A300BF089AB2042F0A97079202D9A0
:104A48004FEACB0750E70B980C99DDF834A02030DB
:104A580050ED084A91ED001AD1ED011AD1ED020A84
:104A680091ED032AD1ED042AD1ED057AD1ED066A3C
:104A780034EE824A34EEC26A31EE225A31EE627A5C
:104A880071EEA74A70EEA65A31EEE71A70EEE61AF2
:104A980034EE243A75EE253A35EE652A76EE612A2B
:104AA80077EE417A74EE640A77EE015A76EE216A5F
:104AB80023EE807A23EE006A20EE804A62EE004AF6
:104AC80022EE805A25EE801A66EE801A27EE803A8A
:104AD80000ED086A81ED007A81ED014AC1ED024AD4
:104AE80081ED035A81ED041AC1ED051A81ED063AEC
:104AF80020302031BAF1010AAAD10EB0BDEC088BE2
:104B0800BDE8F00F704700BF70B583780446012BED
:104B18000D46084662682188A38905D0FFF7ACFBDB
:104B2800E078012807D070BD94ED040AFFF72AFE4B
:104B3800E0780128F7D12188E289A3682846BDE8F2
:104B4800704000F001B800BF2DE9F00F86B04908A9
:104B58000391039C0021A51E520004F1010905924E
:104B680004950A460C46039FDDF81480661CD51987
:104B7800F400EA00061985183768D5F800C004342F
:104B88000432C6F800C02F6007198418023126685D
:104B98003D683E6089B201EB090725604FEAC10A0A
:104BA800FC00261D0AF1040200EB0A0B00EB020AC6
:104BB800821902921A880519D7003C1D01954344B1
:104BC80009EB0205DDF8108000EB070C0719EC0073
:104BD800251D414500EB040605440C4623D88A42AE
:104BE800C1D9DBED007A9CED007A8BED007ACCED33
:104BF800007AD7F800B0DAF800C0CAF800B0DDF8DB
:104C080004A0C7F800C0DAF80070D6F80080DDF814
:104C180008C0CAF800803760DCF800602F68CCF85C
:104C280000702E609FE706B0BDE8F00F704700BF28
:104C38002DE9F00F88B0490804919C46049B8C1E0E
:104C48005E1C07940696079E5200CD004FF00008A0
:104C58000592B207034600EB0504414600F1908037
:104C6800CDF80C80E0464EE0A94219D950F83150F1
:104C7800D3F810B01D6140F831B0DDF804B05969BF
:104C880050F80B505D6140F80B1050F83C10A369C8
:104C9800029DA16140F83C30E3694159E16143510B
:104CA80050F837309468936040F8374050F80970EE
:104CB800D568D76040F80950069BBAF80010DDF8AF
:104CC8000C90CB18CC00DF00251D3C1D494516D99A
:104CD80050F83170D2F810C0176140F831C0475908
:104CE800D2F814A0576140F805A050F83370B569A0
:104CF800B76140F83350F7690359F361075102F17E
:104D0800100306F11004049DDDF810B049199D68E0
:104D180050F83170CE009F60371D40F83150C159AE
:104D2800DD68039ED960C551B51CB8F80010AF1CEA
:104D38004FEAC106039701EB0B0706F104094FEA96
:104D4800C706CDF8049006F10409069E01EB060C8F
:104D58004FEACC0A0AF1040B079ECDF808B0DDF83B
:104D680014B0B54208EB0B0A03F1100204F1100667
:104D78000AEB0B087FF678AF08B0BDE8F00F704774
:104D8800276881688760043545192160C2682B68E7
:104D9800DDF81CB0059FC3604FF002082A60D845B3
:104DA800BCF80010BC44E7D8414519D9CF00C51953
:104DB80006692B683A1D069F036182182E60CB197D
:104DC80045691768DE008319476115601A68A56987
:104DD800A261371DC6191D60E2693368E36132605C
:104DE800CDF80C8000F110031034E0468BE700BFCB
:104DF8002DE9F00F490884B08C1E0394DDF80C806F
:104E0800520000274D1C18F0020F0192029502462D
:104E180000EB81063C4657D10091894631E0644554
:104E28000CD9D2F808C050F82410916040F824C07A
:104E3800F26850F82B40F46040F82B2050F82A60B4
:104E480069686E6040F82A10B8F80040DDF80880FC
:104E5800BC4204EB08060DD9AA6850F82410A960D2
:104E680040F82420D9F80C2050F82610C9F80C1066
:104E780040F8262009F108060099DDF8009005F1B0
:104E880008026418D2F804B050F82410516040F8B1
:104E980024B002991C8804EB010B019903EB01086B
:104EA800039B019907F1020C9C4504EB090A02F1E6
:104EB80008050CF1020706F1080908EB0103AED951
:104EC80004B0BDE8F00F7047356844684560039D3D
:104ED800019A34600227AF421C881344F0D8BC42C0
:104EE80014D900EB840CDDF80880DCF80020D0F839
:104EF8000890826004EB080500EB8505CCF800906B
:104F0800D6F80CA02A68F260C5F800A000F10802E3
:104F1800083600918946B4E72DE9F0435FEA920824
:104F280085B06FD04FF0000901F1100701F10C05B1
:104F380046460446D4ED017A94ED007A67EEA70A56
:104F480047EE070AF5EEC00AF1EE10FA40F3BD800D
:104F5800B1EEE00AB4EE400AF1EE10FA40F0D58066
:104F680007ED040A94ED030A94ED021A60EE001AA4
:104F780041EE011AF5EEC01AF1EE10FA40F3AE80D8
:104F8800B1EEE10AB4EE400AF1EE10FA40F0B28058
:104F980005ED020A94ED052AD4ED042A22EE023A20
:104FA80002EEA23AB5EEC03AF1EE10FA40F3938061
:104FB800B1EEC30AB4EE400AF1EE10FA40F0BB803D
:104FC80005ED010AD4ED073A94ED064A63EEA34ACB
:104FD80044EE044A2034F5EEC04AF1EE10FA77DDCB
:104FE800B1EEE40AB4EE400AF1EE10FA40F098800F
:104FF80085ED000A10371035013E9BD100EB4810B3
:1050080001EB081112F003065CD090ED015AD0EDC7
:10501800005A25EE056A05EEA56A731EB5EEC06A4C
:1050280000270D1DF1EE10FA03F0010200F108044B
:105038005DDDB1EEC60AB4EE400AF1EE10FA40F0BA
:105048008F8005ED010A013E3CD042B1D4ED016AE2
:1050580094ED007A66EEA67A47EE077A20E0D4ED62
:10506800010A94ED000A20EEA01A00EE001A083496
:10507800B5EEC01A0435F1EE10FA35DDB1EEC10A0D
:10508800B4EE400AF1EE10FA60D105ED010AD4ED54
:10509800011A94ED002A61EEA17A42EE027A013EED
:1050A800F5EEC07A08340435F1EE10FA19DDB1EEE8
:1050B800E70AB4EE400AF1EE10FA4CD105ED010A08
:1050C800013ECCD105B0BDE8F08347F8109C49E714
:1050D800C5F800908EE745F8049C73E745F8089CEE
:1050E80058E745F8047CEBE745F8047CCFE745F83A
:1050F800047CA8E7B0EE610A03900291019204F0E3
:10510800B7FE019A0299039842E7B0EE600A03904D
:105118000291019204F0ACFE019A029903981FE7EC
:10512800B0EE640A03900291019204F0A1FE019A84
:10513800029903985CE7B0EE430A0390029101924A
:1051480004F096FE019A0299039839E7B0EE410AF5
:1051580004F08EFE99E7B0EE670A04F089FEADE729
:10516800B0EE460A039204F083FE039A69E700BF93
:10517800014B1868704700BF1805002008B50021CA
:10518800044600F0ADF8044B1868C36B03B19847A8
:1051980020462BF0E1FE00BF700D030870B50F4EDE
:1051A8000F4D761BB61007D0043D0024013455F886
:1051B800043F9847A642F9D10A4E0B4D761B2BF0B7
:1051C800BFFEB61008D0043D0024013455F8043F52
:1051D8009847A642F9D170BD70BD00BF680F03089B
:1051E800680F0308700F0308680F0308F0B48407FA
:1051F80043D0541E002A3ED0CDB2034603E0621EBF
:10520800002C38D0144603F8015B9A07F7D1032C19
:105218002AD9CDB245EA05250F2C45EA054515D909
:10522800A4F110073F0903F1100606EB07161A460A
:10523800156055609560D5601032B242F8D104F01F
:105248000F040137032C03EB07130DD91E46224622
:10525800043A032A46F8045BFAD8221F22F0030214
:105268000432134404F003042CB1C9B21C4403F8FB
:10527800011BA342FBD1F0BC704714460346C6E7A6
:10528800F0B59BB00D466FF000444FF402774FF62F
:10529800FF76694600950495ADF80C700294059464
:1052A800ADF80E6000F0B4F8009B00221A701BB035
:1052B800F0BD00BF30B4044C0D46134601462A46E3
:1052C800206830BCFFF7DCBF18050020024B13B183
:1052D800024800F07DB8704700000000E553000860
:1052E8002DE9F04F384B1B6885B003F5A472019384
:1052F80002900F460392019BD3F84881B8F1000F42
:105308001CD0DDF80CB04FF00109DA46D8F80430AB
:105318005C1E11D408F188059E1C05EB830508EB7B
:10532800860677B1EB6FBB420BD0013C631CA5F13D
:105338000405A6F10406F4D1244A7ABB05B0BDE8F9
:10534800F08FD8F8042056F8043C013AA24216BF60
:105358000022C8F8044046F8042C002BE5D0D8F801
:105368008811D8F804B009FA04F20A4210D0D8F823
:105378008C110A420ED1029855F8041C9847D8F8A7
:1053880004305B45B7D1DAF800304345CDD0B2E7F9
:105398009847F4E755F8040C9847F0E7D8F8043034
:1053A8006BB9D8F8003063B14046CAF80030AFF3A3
:1053B8000080DAF80080B8F1000FA7D1BEE7D8F86E
:1053C8000030C2469846F6E7700D0308000000005A
:1053D800014600200246034601F092BA38B5094D4D
:1053E800094C641BA41018BF05EB840505D0013CCB
:1053F80055F8043D9847002CF9D1BDE838402BF00A
:10540800A5BD00BF700F0308740F0308000000005B
:105418002DE9F04FC5B091460C930891099002F020
:10542800B7FA0068119003F053FA089C1490A38906
:105438001A0603D52369002B01F092809FED967B15
:105448008DED127B002334AC0D930494299328939B
:10545800169315930A932794264699F80030002B43
:1054680000F0F880252B00F0F58009F1010201E039
:10547800252B04D0144601322378002BF8D1C9EB30
:1054880004057DB1289B299AC6F8009001332A4467
:10549800072B75602992289300F3C28008360A9872
:1054A80028440A902378002B00F0C280002394F847
:1054B80001808DF87F301A460B93059304F101099A
:1054C8004FF0FF34069409F10109A8F12003582B85
:1054D80000F2CC83DFE813F06F02CA03CA03760236
:1054E800CA03CA03CA03CA03CA03CA03190369035E
:1054F800CA039D00C000CA037D028402840284029C
:10550800840284028402840284028402CA03CA03D5
:10551800CA03CA03CA03CA03CA03CA03CA03CA031B
:1055280095027403CA037403CA03CA03CA03CA03ED
:105538006D03CA03CA037800CA03CA03CA03CA03AD
:10554800CA035900CA03CA03B402CA03CA03CA0376
:10555800CA03CA03CA03CA03CA03CA03CA033C0369
:105568004D0374037403740304034D03CA03CA038D
:105578000D03CA03CA027C002603AA03CA03DE027B
:10558800CA035F00CA03CA03E400DDF814C04CF084
:10559800100CCDF814C0059CA20600F15B83059C95
:1055A800E30600F1E585DDF814C01CF0400F00F0BB
:1055B800DF85DDF830C0BCF800400CF1040C002594
:1055C8000123CDF830C092E0059D45F01005059502
:1055D800DDF814C01CF0200340F03183DDF814C05E
:1055E8001CF0100240F0BD85DDF814C01CF040032B
:1055F80000F0B785DDF830C0BCF800400CF1040CB1
:1056080013460025CDF830C071E00B9C0C93644222
:105618000B94059D45F00405059599F8008052E71F
:105628000998089927AA03F083F940B934AE36E7F8
:10563800299B23B10998089927AA03F079F9089CAE
:105648000A98A38913F0400F18BF4FF0FF3045B0F8
:10565800BDE8F08F4C4625E799F80080B8F12A0F8D
:1056680009F1010001F01B81A8F13003092B98BF53
:10567800002101F28B8010F8018B01EB810103EB13
:105688004101A8F13003092BF5D941EAE1710691EE
:1056980081461AE7AFF30080000000000000000018
:1056A800059DA14C1694AF068DF87F2040F1D0815E
:1056B800DDF830C00CF1070323F0070303F10804F9
:1056C8000C94D3E90045DDF814C01CF0010F00F07C
:1056D800638454EA050000F05F8430234CF0020C28
:1056E8008DF880308DF88180CDF814C002234FF0FA
:1056F800000A8DF87FA00699002905DBDDF814C0A3
:105708002CF0800CCDF814C054EA050040F0C68295
:105718000699002940F0C282002B40F03984DDF858
:1057280014C01CF0010F00F0338444AF302307F895
:10573800413D049DEC1BDDF818C000256445A8BF59
:10574800A446CDF81CC01095BAF1000F02D0079DF1
:1057580001350795059B13F002030E9302D0079DB0
:1057680002350795DDF814C01CF0840CCDF83CC058
:1057780040F091820B9DDDF81CC0CCEB050BBBF112
:10578800000F40F38882BBF1100F2999289ADFF89F
:10579800A0A12CDD1797304657461025CA46089E0B
:1057A800A146099C06E0ABF1100BBBF1100F00F10C
:1057B800080017DD01321031072A29912892076065
:1057C8004560F0DD2046314627AA03F0B1F80028ED
:1057D8007FF435AFABF1100BBBF1100F2999289A64
:1057E80034A8E7DC4C46D146BA46179F0646013234
:1057F8000BEB010C072ACDF8A4C0289286E8000C10
:1058080000F31B849DF87FA00836BAF1000F0FD073
:10581800289B01330CF1010C0DF17F010122072BAC
:10582800CDF8A4C0289386E8060000F399830836CB
:105838000E9B73B1289B01330CF1020C20A90222A4
:10584800072BCDF8A4C0289386E8060000F39483BC
:1058580008360F9D802D00F0CB82069DC4EB050A0B
:10586800BAF1000F3BDDBAF1100F289B2F4D2BDD4D
:10587800069432464FF0100B2E466146099C089D4F
:1058880006E0AAF1100ABAF1100F02F1080217DDBA
:1058980001331031072B2991289382E84008F0DD65
:1058A8002046294627AA03F043F800287FF4C7AE0C
:1058B800AAF1100ABAF1100F2999289B34AAE7DC3B
:1058C800069C35468C4616460133D444072BCDF842
:1058D800A4C0289386E8200400F336830836059D83
:1058E800ED0500F12582289B37600133A444072B7E
:1058F800CDF8A4C07460289300F310830836059C83
:10590800630748D50B9D07982C1A002C43DD102CF3
:10591800289BDFF81CA02ADD574610256246DDF8D3
:105928002080DDF824A00AE0A80D0308740D030800
:10593800C80D0308103C102C06F1080615DD0133CC
:105948001032072B2992289337607560F2DD504694
:10595800414627AA02F0ECFF00287FF470AE103C05
:10596800102C299A289B34AEE9DC9446BA460133B8
:10597800A444072BCDF8A4C02893C6F800A07460EF
:1059880009DD0998089927AA02F0D2FF00287FF4B8
:1059980056AEDDF8A4C00A9C07980B9DA842ACBF80
:1059A800241864190A94BCF1000F40F0C382002344
:1059B800289334AE51E599F80080002A7FF483AD2E
:1059C800202280E5059D45F00105059599F80080A0
:1059D80079E5059D45F08005059599F8008072E503
:1059E8000024A8F130030B94214619F8018B01EB30
:1059F800810103EB4101A8F13003092BF5D90B9183
:105A080063E5DDF814C08DF87F204CF0100CCDF85C
:105A180014C0059CA30640F1B2800C9DE91D21F03D
:105A28000701D1E9002308310C9114461D46002ACC
:105A380073F10000C0F28B839DF87FA001235AE622
:105A4800059DB74C8DF87F20AF0616943FF530AE14
:105A5800059DED0640F16084DDF830C0DCF80040BB
:105A68000CF1040CCDF830C000252CE6DDF814C08C
:105A78008DF87F201CF0200F00F040840C9C2168DA
:105A88000A9CE5172B460C9D224604350C95C1E966
:105A98000023E2E40C9C27684FF0000A8DF87FA0F1
:105AA800251D002F00F0F585069C002C3846C0F215
:105AB8008B855146224602F017FA002800F05A86D4
:105AC800069C0C95C01BA042B8BF044624EAE475A6
